{
  "contractName": "Box",
  "abi": [
    {
      "constant": true,
      "inputs": [
        {
          "internalType": "uint256",
          "name": "",
          "type": "uint256"
        }
      ],
      "name": "notes",
      "outputs": [
        {
          "internalType": "string",
          "name": "",
          "type": "string"
        }
      ],
      "payable": false,
      "stateMutability": "view",
      "type": "function"
    },
    {
      "constant": true,
      "inputs": [],
      "name": "numberOfNotes",
      "outputs": [
        {
          "internalType": "uint256",
          "name": "",
          "type": "uint256"
        }
      ],
      "payable": false,
      "stateMutability": "view",
      "type": "function"
    },
    {
      "constant": true,
      "inputs": [],
      "name": "openingTime",
      "outputs": [
        {
          "internalType": "uint256",
          "name": "",
          "type": "uint256"
        }
      ],
      "payable": false,
      "stateMutability": "view",
      "type": "function"
    },
    {
      "constant": true,
      "inputs": [],
      "name": "title",
      "outputs": [
        {
          "internalType": "string",
          "name": "",
          "type": "string"
        }
      ],
      "payable": false,
      "stateMutability": "view",
      "type": "function"
    },
    {
      "constant": true,
      "inputs": [
        {
          "internalType": "address",
          "name": "",
          "type": "address"
        }
      ],
      "name": "voters",
      "outputs": [
        {
          "internalType": "bool",
          "name": "",
          "type": "bool"
        }
      ],
      "payable": false,
      "stateMutability": "view",
      "type": "function"
    },
    {
      "constant": false,
      "inputs": [
        {
          "internalType": "string",
          "name": "_title",
          "type": "string"
        },
        {
          "internalType": "uint256",
          "name": "_lifetime",
          "type": "uint256"
        }
      ],
      "name": "deployBox",
      "outputs": [],
      "payable": false,
      "stateMutability": "nonpayable",
      "type": "function"
    },
    {
      "constant": false,
      "inputs": [
        {
          "internalType": "string",
          "name": "note",
          "type": "string"
        }
      ],
      "name": "submitNote",
      "outputs": [],
      "payable": false,
      "stateMutability": "nonpayable",
      "type": "function"
    }
  ],
  "bytecode": "0x608060405234801561001057600080fd5b5061084c806100206000396000f3fe608060405234801561001057600080fd5b506004361061007d5760003560e01c80636e03dbdc1161005b5780636e03dbdc1461026757806374653bcb1461032c578063a3ec138d1461034a578063b7a8807c146103a65761007d565b80634a79d50c1461008257806361c3a7e61461010557806366a30639146101ac575b600080fd5b61008a6103c4565b6040518080602001828103825283818151815260200191508051906020019080838360005b838110156100ca5780820151818401526020810190506100af565b50505050905090810190601f1680156100f75780820380516001836020036101000a031916815260200191505b509250505060405180910390f35b6101316004803603602081101561011b57600080fd5b8101908080359060200190929190505050610462565b6040518080602001828103825283818151815260200191508051906020019080838360005b83811015610171578082015181840152602081019050610156565b50505050905090810190601f16801561019e5780820380516001836020036101000a031916815260200191505b509250505060405180910390f35b610265600480360360208110156101c257600080fd5b81019080803590602001906401000000008111156101df57600080fd5b8201836020820111156101f157600080fd5b8035906020019184600183028401116401000000008311171561021357600080fd5b91908080601f016020809104026020016040519081016040528093929190818152602001838380828437600081840152601f19601f820116905080830192505050505050509192919290505050610512565b005b61032a6004803603604081101561027d57600080fd5b810190808035906020019064010000000081111561029a57600080fd5b8201836020820111156102ac57600080fd5b803590602001918460018302840111640100000000831117156102ce57600080fd5b91908080601f016020809104026020016040519081016040528093929190818152602001838380828437600081840152601f19601f820116905080830192505050505050509192919290803590602001909291905050506106e1565b005b610334610746565b6040518082815260200191505060405180910390f35b61038c6004803603602081101561036057600080fd5b81019080803573ffffffffffffffffffffffffffffffffffffffff16906020019092919050505061074c565b604051808215151515815260200191505060405180910390f35b6103ae61076c565b6040518082815260200191505060405180910390f35b60008054600181600116156101000203166002900480601f01602080910402602001604051908101604052809291908181526020018280546001816001161561010002031660029004801561045a5780601f1061042f5761010080835404028352916020019161045a565b820191906000526020600020905b81548152906001019060200180831161043d57829003601f168201915b505050505081565b60056020528060005260406000206000915090508054600181600116156101000203166002900480601f01602080910402602001604051908101604052809291908181526020018280546001816001161561010002031660029004801561050a5780601f106104df5761010080835404028352916020019161050a565b820191906000526020600020905b8154815290600101906020018083116104ed57829003601f168201915b505050505081565b600460003373ffffffffffffffffffffffffffffffffffffffff1673ffffffffffffffffffffffffffffffffffffffff16815260200190815260200160002060009054906101000a900460ff16156105d2576040517f08c379a000000000000000000000000000000000000000000000000000000000815260040180806020018281038252601f8152602001807f596f752063616e2774207375626d6974206d6f7265207468616e206f6e63650081525060200191505060405180910390fd5b60015442111561064a576040517f08c379a000000000000000000000000000000000000000000000000000000000815260040180806020018281038252601f8152602001807f54686520626f782068617320616c7265616479206265656e206f70656e65640081525060200191505060405180910390fd5b6001600460003373ffffffffffffffffffffffffffffffffffffffff1673ffffffffffffffffffffffffffffffffffffffff16815260200190815260200160002060006101000a81548160ff0219169083151502179055506002600081548092919060010191905055508060056000600254815260200190815260200160002090805190602001906106dd929190610772565b5050565b81600090805190602001906106f7929190610772565b5080420160018190555033600360006101000a81548173ffffffffffffffffffffffffffffffffffffffff021916908373ffffffffffffffffffffffffffffffffffffffff1602179055505050565b60025481565b60046020528060005260406000206000915054906101000a900460ff1681565b60015481565b828054600181600116156101000203166002900490600052602060002090601f016020900481019282601f106107b357805160ff19168380011785556107e1565b828001600101855582156107e1579182015b828111156107e05782518255916020019190600101906107c5565b5b5090506107ee91906107f2565b5090565b61081491905b808211156108105760008160009055506001016107f8565b5090565b9056fea265627a7a7231582068e3d20010a354b93d94ed53fab0521d15047dfbbdab8e52913d4c0b9857993c64736f6c634300050c0032",
  "source": "pragma solidity ^0.5.11;\r\n\r\ncontract Box {\r\n    string public title;\r\n    uint public openingTime;\r\n    uint public numberOfNotes;\r\n    address creator;\r\n\r\n    mapping(address => bool) public voters;\r\n    mapping(uint => string) public notes;\r\n\r\n    function deployBox(string memory _title, uint _lifetime) public {\r\n        title = _title;\r\n        openingTime = now + _lifetime;\r\n        creator = msg.sender;\r\n    }\r\n\r\n    function submitNote(string memory note) public {\r\n        require(!voters[msg.sender], \"You can't submit more than once\");\r\n        require(now <= openingTime, \"The box has already been opened\");\r\n\r\n        // record the submition\r\n        voters[msg.sender] = true;\r\n\r\n        // record the submited note\r\n        numberOfNotes++;\r\n        notes[numberOfNotes] = note;\r\n    }\r\n\r\n    // function open() public {\r\n    //     require(now >= openingTime, \"The submition period is still in progress\");\r\n    //     require(!opened, \"The box has already been opened.\");\r\n    //     require(msg.sender, creator, \"Only the creator can open the box\");\r\n    //     opened = true;\r\n    // }\r\n}",
  "sourcePath": "C:/Users/Admin/Desktop/coding/Projects/Hackathons/EthWaterloo/box-of-notes/contracts/Box.sol",
  "compiler": {
    "name": "solc",
    "version": "0.5.12+commit.7709ece9.Emscripten.clang"
  },
  "schemaVersion": "3.0.18",
  "updatedAt": "2019-11-10T03:55:55.598Z",
  "networkType": "ethereum",
  "devdoc": {
    "methods": {}
  },
  "userdoc": {
    "methods": {}
  }
}