{
  "contractName": "Box",
  "abi": [
    {
      "inputs": [
        {
          "internalType": "uint256",
          "name": "_id",
          "type": "uint256"
        },
        {
          "internalType": "string",
          "name": "_title",
          "type": "string"
        },
        {
          "internalType": "uint256",
          "name": "_openingTime",
          "type": "uint256"
        },
        {
          "internalType": "address",
          "name": "_creator",
          "type": "address"
        }
      ],
      "payable": false,
      "stateMutability": "nonpayable",
      "type": "constructor"
    },
    {
      "constant": true,
      "inputs": [],
      "name": "id",
      "outputs": [
        {
          "internalType": "uint256",
          "name": "",
          "type": "uint256"
        }
      ],
      "payable": false,
      "stateMutability": "view",
      "type": "function"
    },
    {
      "constant": true,
      "inputs": [],
      "name": "numberOfNotes",
      "outputs": [
        {
          "internalType": "uint256",
          "name": "",
          "type": "uint256"
        }
      ],
      "payable": false,
      "stateMutability": "view",
      "type": "function"
    },
    {
      "constant": true,
      "inputs": [],
      "name": "openingTime",
      "outputs": [
        {
          "internalType": "uint256",
          "name": "",
          "type": "uint256"
        }
      ],
      "payable": false,
      "stateMutability": "view",
      "type": "function"
    },
    {
      "constant": true,
      "inputs": [],
      "name": "title",
      "outputs": [
        {
          "internalType": "string",
          "name": "",
          "type": "string"
        }
      ],
      "payable": false,
      "stateMutability": "view",
      "type": "function"
    },
    {
      "constant": true,
      "inputs": [
        {
          "internalType": "address",
          "name": "",
          "type": "address"
        }
      ],
      "name": "voted",
      "outputs": [
        {
          "internalType": "bool",
          "name": "",
          "type": "bool"
        }
      ],
      "payable": false,
      "stateMutability": "view",
      "type": "function"
    },
    {
      "constant": false,
      "inputs": [
        {
          "internalType": "string",
          "name": "note",
          "type": "string"
        },
        {
          "internalType": "address",
          "name": "sender",
          "type": "address"
        }
      ],
      "name": "submitNote",
      "outputs": [],
      "payable": false,
      "stateMutability": "nonpayable",
      "type": "function"
    },
    {
      "constant": true,
      "inputs": [
        {
          "internalType": "uint256",
          "name": "noteNumber",
          "type": "uint256"
        }
      ],
      "name": "getNote",
      "outputs": [
        {
          "internalType": "string",
          "name": "",
          "type": "string"
        }
      ],
      "payable": false,
      "stateMutability": "view",
      "type": "function"
    },
    {
      "constant": true,
      "inputs": [
        {
          "internalType": "address",
          "name": "sender",
          "type": "address"
        }
      ],
      "name": "getIndividualNote",
      "outputs": [
        {
          "internalType": "string",
          "name": "",
          "type": "string"
        }
      ],
      "payable": false,
      "stateMutability": "view",
      "type": "function"
    }
  ],
  "bytecode": "0x608060405234801561001057600080fd5b50604051610d65380380610d658339818101604052608081101561003357600080fd5b81019080805190602001909291908051604051939291908464010000000082111561005d57600080fd5b8382019150602082018581111561007357600080fd5b825186600182028301116401000000008211171561009057600080fd5b8083526020830192505050908051906020019080838360005b838110156100c45780820151818401526020810190506100a9565b50505050905090810190601f1680156100f15780820380516001836020036101000a031916815260200191505b50604052602001805190602001909291908051906020019092919050505083600081905550826001908051906020019061012c92919061017e565b508160028190555080600460006101000a81548173ffffffffffffffffffffffffffffffffffffffff021916908373ffffffffffffffffffffffffffffffffffffffff16021790555050505050610223565b828054600181600116156101000203166002900490600052602060002090601f016020900481019282601f106101bf57805160ff19168380011785556101ed565b828001600101855582156101ed579182015b828111156101ec5782518255916020019190600101906101d1565b5b5090506101fa91906101fe565b5090565b61022091905b8082111561021c576000816000905550600101610204565b5090565b90565b610b33806102326000396000f3fe608060405234801561001057600080fd5b50600436106100885760003560e01c8063aec2ccae1161005b578063aec2ccae146102b0578063af640d0f1461030c578063b7a8807c1461032a578063ccb384b51461034857610088565b80634a79d50c1461008d5780636d9d6e161461011057806374653bcb146101eb578063a965a94114610209575b600080fd5b610095610405565b6040518080602001828103825283818151815260200191508051906020019080838360005b838110156100d55780820151818401526020810190506100ba565b50505050905090810190601f1680156101025780820380516001836020036101000a031916815260200191505b509250505060405180910390f35b6101e96004803603604081101561012657600080fd5b810190808035906020019064010000000081111561014357600080fd5b82018360208201111561015557600080fd5b8035906020019184600183028401116401000000008311171561017757600080fd5b91908080601f016020809104026020016040519081016040528093929190818152602001838380828437600081840152601f19601f820116905080830192505050505050509192919290803573ffffffffffffffffffffffffffffffffffffffff1690602001909291905050506104a3565b005b6101f36106c7565b6040518082815260200191505060405180910390f35b6102356004803603602081101561021f57600080fd5b81019080803590602001909291905050506106cd565b6040518080602001828103825283818151815260200191508051906020019080838360005b8381101561027557808201518184015260208101905061025a565b50505050905090810190601f1680156102a25780820380516001836020036101000a031916815260200191505b509250505060405180910390f35b6102f2600480360360208110156102c657600080fd5b81019080803573ffffffffffffffffffffffffffffffffffffffff1690602001909291905050506107f9565b604051808215151515815260200191505060405180910390f35b610314610819565b6040518082815260200191505060405180910390f35b61033261081f565b6040518082815260200191505060405180910390f35b61038a6004803603602081101561035e57600080fd5b81019080803573ffffffffffffffffffffffffffffffffffffffff169060200190929190505050610825565b6040518080602001828103825283818151815260200191508051906020019080838360005b838110156103ca5780820151818401526020810190506103af565b50505050905090810190601f1680156103f75780820380516001836020036101000a031916815260200191505b509250505060405180910390f35b60018054600181600116156101000203166002900480601f01602080910402602001604051908101604052809291908181526020018280546001816001161561010002031660029004801561049b5780601f106104705761010080835404028352916020019161049b565b820191906000526020600020905b81548152906001019060200180831161047e57829003601f168201915b505050505081565b600560008273ffffffffffffffffffffffffffffffffffffffff1673ffffffffffffffffffffffffffffffffffffffff16815260200190815260200160002060009054906101000a900460ff1615610563576040517f08c379a000000000000000000000000000000000000000000000000000000000815260040180806020018281038252601f8152602001807f596f752063616e2774207375626d6974206d6f7265207468616e206f6e63650081525060200191505060405180910390fd5b6002544211156105db576040517f08c379a000000000000000000000000000000000000000000000000000000000815260040180806020018281038252601f8152602001807f54686520626f782068617320616c7265616479206265656e206f70656e65640081525060200191505060405180910390fd5b6001600560008373ffffffffffffffffffffffffffffffffffffffff1673ffffffffffffffffffffffffffffffffffffffff16815260200190815260200160002060006101000a81548160ff02191690831515021790555060036000815480929190600101919050555081600660006003548152602001908152602001600020908051906020019061066e929190610a59565b5081600760008373ffffffffffffffffffffffffffffffffffffffff1673ffffffffffffffffffffffffffffffffffffffff16815260200190815260200160002090805190602001906106c2929190610a59565b505050565b60035481565b60606002544211610746576040517f08c379a00000000000000000000000000000000000000000000000000000000081526004018080602001828103825260178152602001807f54686520626f78206973207374696c6c20636c6f73656400000000000000000081525060200191505060405180910390fd5b600660008381526020019081526020016000208054600181600116156101000203166002900480601f0160208091040260200160405190810160405280929190818152602001828054600181600116156101000203166002900480156107ed5780601f106107c2576101008083540402835291602001916107ed565b820191906000526020600020905b8154815290600101906020018083116107d057829003601f168201915b50505050509050919050565b60056020528060005260406000206000915054906101000a900460ff1681565b60005481565b60025481565b6060600460009054906101000a900473ffffffffffffffffffffffffffffffffffffffff1673ffffffffffffffffffffffffffffffffffffffff168273ffffffffffffffffffffffffffffffffffffffff1614156108ba576040518060400160405280600981526020017f3c43726561746f723e00000000000000000000000000000000000000000000008152509050610a54565b600560008373ffffffffffffffffffffffffffffffffffffffff1673ffffffffffffffffffffffffffffffffffffffff16815260200190815260200160002060009054906101000a900460ff16610979576040517f08c379a00000000000000000000000000000000000000000000000000000000081526004018080602001828103825260168152602001807f596f752068617665206e6f742079657420766f7465640000000000000000000081525060200191505060405180910390fd5b600760008373ffffffffffffffffffffffffffffffffffffffff1673ffffffffffffffffffffffffffffffffffffffff1681526020019081526020016000208054600181600116156101000203166002900480601f016020809104026020016040519081016040528092919081815260200182805460018160011615610100020316600290048015610a4c5780601f10610a2157610100808354040283529160200191610a4c565b820191906000526020600020905b815481529060010190602001808311610a2f57829003601f168201915b505050505090505b919050565b828054600181600116156101000203166002900490600052602060002090601f016020900481019282601f10610a9a57805160ff1916838001178555610ac8565b82800160010185558215610ac8579182015b82811115610ac7578251825591602001919060010190610aac565b5b509050610ad59190610ad9565b5090565b610afb91905b80821115610af7576000816000905550600101610adf565b5090565b9056fea265627a7a723158200b52ed7135a9f48f33f3feb05653585387c54f6a6002c9ae425bf5f0bb8a0a4764736f6c634300050c0032",
  "source": "pragma solidity ^0.5.11;\r\n\r\ncontract Box {\r\n    uint public id;\r\n    string public title;\r\n    uint public openingTime;\r\n    uint public numberOfNotes;\r\n    address creator;\r\n\r\n    mapping(address => bool) public voted;\r\n    mapping(uint => string) notes;\r\n    mapping(address => string) voterNote;\r\n\r\n    constructor (uint _id, string memory _title, uint _openingTime, address _creator) public {\r\n        id = _id;\r\n        title = _title;\r\n        openingTime = _openingTime;\r\n        creator = _creator;\r\n    }\r\n\r\n    function submitNote(string memory note, address sender) public {\r\n        require(!voted[sender], \"You can't submit more than once\");\r\n        require(now <= openingTime, \"The box has already been opened\");\r\n\r\n        // record the submition\r\n        voted[sender] = true;\r\n\r\n        // record the submited note\r\n        numberOfNotes++;\r\n        notes[numberOfNotes] = note;\r\n        voterNote[sender] = note;\r\n    }\r\n\r\n    function getNote(uint noteNumber) public view returns (string memory) {\r\n        require(now > openingTime, \"The box is still closed\");\r\n        return notes[noteNumber];\r\n    }\r\n\r\n    function getIndividualNote(address sender) public view returns (string memory) {\r\n        if (sender == creator) {\r\n            return \"<Creator>\";\r\n        }\r\n        require(voted[sender], \"You have not yet voted\");\r\n        return voterNote[sender];\r\n    }\r\n}\r\n\r\ncontract Storage {\r\n    mapping(address => uint) public voterBoxCount;\r\n    mapping(address => mapping(uint => Box)) public voterBoxes;\r\n    mapping(address => Box) public boxes;\r\n    mapping(address => bool) boxExists;\r\n\r\n    function deployBox(string memory title, uint openTime) public {\r\n        voterBoxCount[msg.sender]++;\r\n        uint boxCount = voterBoxCount[msg.sender];\r\n\r\n        Box box = new Box(boxCount, title, openTime, msg.sender);\r\n        voterBoxes[msg.sender][boxCount] = box;\r\n        boxes[address(box)] = box;\r\n        boxExists[address(box)] = true;\r\n    }\r\n\r\n    function getMyBox(uint id) public view returns (Box) {\r\n        return voterBoxes[msg.sender][id];\r\n    }\r\n\r\n    function submitNote(string memory note, address boxAddress) public {\r\n        require(boxExists[boxAddress], \"The box doesn't exist\");\r\n        Box box = boxes[boxAddress];\r\n        box.submitNote(note, msg.sender);\r\n\r\n        voterBoxCount[msg.sender]++;\r\n        voterBoxes[msg.sender][voterBoxCount[msg.sender]] = box;\r\n    }\r\n\r\n    function getBoxOpeningTime(uint id) public view returns (uint) {\r\n        //require(id > 0 && id < voterBoxCount[msg.sender], \"Id is not valid\");\r\n        return voterBoxes[msg.sender][id].openingTime();\r\n    }\r\n\r\n    function getBoxTitle(uint id) public view returns (string memory) {\r\n        //require(id > 0 && id < voterBoxCount[msg.sender], \"Id is not valid\");\r\n        return voterBoxes[msg.sender][id].title();\r\n    }\r\n\r\n    function getBoxIndividualNote(uint id) public view returns (string memory) {\r\n        //require(id > 0 && id < voterBoxCount[msg.sender], \"Id is not valid\");\r\n        return voterBoxes[msg.sender][id].getIndividualNote(msg.sender);\r\n    }\r\n}",
  "sourcePath": "C:/Users/Admin/Desktop/coding/Projects/Hackathons/EthWaterloo/box-of-notes/contracts/Box.sol",
  "compiler": {
    "name": "solc",
    "version": "0.5.12+commit.7709ece9.Emscripten.clang"
  },
  "schemaVersion": "3.0.18",
  "updatedAt": "2019-11-10T17:01:59.525Z",
  "networkType": "ethereum",
  "devdoc": {
    "methods": {}
  },
  "userdoc": {
    "methods": {}
  }
}