{
  "contractName": "Box",
  "abi": [
    {
      "inputs": [
        {
          "internalType": "uint256",
          "name": "_lifetime",
          "type": "uint256"
        },
        {
          "internalType": "string",
          "name": "_title",
          "type": "string"
        }
      ],
      "payable": false,
      "stateMutability": "nonpayable",
      "type": "constructor"
    },
    {
      "anonymous": false,
      "inputs": [],
      "name": "BoxOpened",
      "type": "event"
    },
    {
      "constant": true,
      "inputs": [
        {
          "internalType": "uint256",
          "name": "",
          "type": "uint256"
        }
      ],
      "name": "notes",
      "outputs": [
        {
          "internalType": "string",
          "name": "",
          "type": "string"
        }
      ],
      "payable": false,
      "stateMutability": "view",
      "type": "function"
    },
    {
      "constant": true,
      "inputs": [],
      "name": "numberOfNotes",
      "outputs": [
        {
          "internalType": "uint256",
          "name": "",
          "type": "uint256"
        }
      ],
      "payable": false,
      "stateMutability": "view",
      "type": "function"
    },
    {
      "constant": true,
      "inputs": [],
      "name": "openingTime",
      "outputs": [
        {
          "internalType": "uint256",
          "name": "",
          "type": "uint256"
        }
      ],
      "payable": false,
      "stateMutability": "view",
      "type": "function"
    },
    {
      "constant": true,
      "inputs": [],
      "name": "title",
      "outputs": [
        {
          "internalType": "string",
          "name": "",
          "type": "string"
        }
      ],
      "payable": false,
      "stateMutability": "view",
      "type": "function"
    },
    {
      "constant": true,
      "inputs": [
        {
          "internalType": "address",
          "name": "",
          "type": "address"
        }
      ],
      "name": "voters",
      "outputs": [
        {
          "internalType": "bool",
          "name": "",
          "type": "bool"
        }
      ],
      "payable": false,
      "stateMutability": "view",
      "type": "function"
    },
    {
      "constant": false,
      "inputs": [
        {
          "internalType": "string",
          "name": "note",
          "type": "string"
        }
      ],
      "name": "submitNote",
      "outputs": [],
      "payable": false,
      "stateMutability": "nonpayable",
      "type": "function"
    },
    {
      "constant": false,
      "inputs": [],
      "name": "open",
      "outputs": [],
      "payable": false,
      "stateMutability": "nonpayable",
      "type": "function"
    }
  ],
  "bytecode": "0x608060405234801561001057600080fd5b50604051610a4f380380610a4f8339818101604052604081101561003357600080fd5b81019080805190602001909291908051604051939291908464010000000082111561005d57600080fd5b8382019150602082018581111561007357600080fd5b825186600182028301116401000000008211171561009057600080fd5b8083526020830192505050908051906020019080838360005b838110156100c45780820151818401526020810190506100a9565b50505050905090810190601f1680156100f15780820380516001836020036101000a031916815260200191505b50604052505050814201600181905550806000908051906020019061011792919061011f565b5050506101c4565b828054600181600116156101000203166002900490600052602060002090601f016020900481019282601f1061016057805160ff191683800117855561018e565b8280016001018555821561018e579182015b8281111561018d578251825591602001919060010190610172565b5b50905061019b919061019f565b5090565b6101c191905b808211156101bd5760008160009055506001016101a5565b5090565b90565b61087c806101d36000396000f3fe608060405234801561001057600080fd5b506004361061007d5760003560e01c806374653bcb1161005b57806374653bcb14610267578063a3ec138d14610285578063b7a8807c146102e1578063fcfff16f146102ff5761007d565b80634a79d50c1461008257806361c3a7e61461010557806366a30639146101ac575b600080fd5b61008a610309565b6040518080602001828103825283818151815260200191508051906020019080838360005b838110156100ca5780820151818401526020810190506100af565b50505050905090810190601f1680156100f75780820380516001836020036101000a031916815260200191505b509250505060405180910390f35b6101316004803603602081101561011b57600080fd5b81019080803590602001909291905050506103a7565b6040518080602001828103825283818151815260200191508051906020019080838360005b83811015610171578082015181840152602081019050610156565b50505050905090810190601f16801561019e5780820380516001836020036101000a031916815260200191505b509250505060405180910390f35b610265600480360360208110156101c257600080fd5b81019080803590602001906401000000008111156101df57600080fd5b8201836020820111156101f157600080fd5b8035906020019184600183028401116401000000008311171561021357600080fd5b91908080601f016020809104026020016040519081016040528093929190818152602001838380828437600081840152601f19601f820116905080830192505050505050509192919290505050610457565b005b61026f610626565b6040518082815260200191505060405180910390f35b6102c76004803603602081101561029b57600080fd5b81019080803573ffffffffffffffffffffffffffffffffffffffff16906020019092919050505061062c565b604051808215151515815260200191505060405180910390f35b6102e961064c565b6040518082815260200191505060405180910390f35b610307610652565b005b60008054600181600116156101000203166002900480601f01602080910402602001604051908101604052809291908181526020018280546001816001161561010002031660029004801561039f5780601f106103745761010080835404028352916020019161039f565b820191906000526020600020905b81548152906001019060200180831161038257829003601f168201915b505050505081565b60056020528060005260406000206000915090508054600181600116156101000203166002900480601f01602080910402602001604051908101604052809291908181526020018280546001816001161561010002031660029004801561044f5780601f106104245761010080835404028352916020019161044f565b820191906000526020600020905b81548152906001019060200180831161043257829003601f168201915b505050505081565b600460003373ffffffffffffffffffffffffffffffffffffffff1673ffffffffffffffffffffffffffffffffffffffff16815260200190815260200160002060009054906101000a900460ff1615610517576040517f08c379a000000000000000000000000000000000000000000000000000000000815260040180806020018281038252601f8152602001807f596f752063616e2774207375626d6974206d6f7265207468616e206f6e63650081525060200191505060405180910390fd5b60015442111561058f576040517f08c379a000000000000000000000000000000000000000000000000000000000815260040180806020018281038252601f8152602001807f54686520626f782068617320616c7265616479206265656e206f70656e65640081525060200191505060405180910390fd5b6001600460003373ffffffffffffffffffffffffffffffffffffffff1673ffffffffffffffffffffffffffffffffffffffff16815260200190815260200160002060006101000a81548160ff021916908315150217905550600260008154809291906001019190505550806005600060025481526020019081526020016000209080519060200190610622929190610779565b5050565b60025481565b60046020528060005260406000206000915054906101000a900460ff1681565b60015481565b6001544210156106ad576040517f08c379a000000000000000000000000000000000000000000000000000000000815260040180806020018281038252602981526020018061081f6029913960400191505060405180910390fd5b600360009054906101000a900460ff1615610730576040517f08c379a00000000000000000000000000000000000000000000000000000000081526004018080602001828103825260208152602001807f54686520626f782068617320616c7265616479206265656e206f70656e65642e81525060200191505060405180910390fd5b6001600360006101000a81548160ff0219169083151502179055507fe49b5c05d81a6a78fafec12ea4875cdb7b73a65c84ad17a77045ad73eae3145e60405160405180910390a1565b828054600181600116156101000203166002900490600052602060002090601f016020900481019282601f106107ba57805160ff19168380011785556107e8565b828001600101855582156107e8579182015b828111156107e75782518255916020019190600101906107cc565b5b5090506107f591906107f9565b5090565b61081b91905b808211156108175760008160009055506001016107ff565b5090565b9056fe546865207375626d6974696f6e20706572696f64206973207374696c6c20696e2070726f6772657373a265627a7a72315820206ba70d1f9f1e822da27c0ba4b4138c12662ef88fa0778a0badceb2a5d7c65864736f6c634300050c0032",
  "source": "pragma solidity ^0.5.11;\r\n\r\ncontract Box {\r\n    string public title;\r\n    uint public openingTime;\r\n    uint public numberOfNotes;\r\n    bool opened;\r\n\r\n    mapping(address => bool) public voters;\r\n    mapping(uint => string) public notes;\r\n\r\n    event BoxOpened();\r\n\r\n    constructor(uint _lifetime, string memory _title) public {\r\n        openingTime = now + _lifetime;\r\n        title = _title;\r\n    }\r\n\r\n    function submitNote(string memory note) public {\r\n        require(!voters[msg.sender], \"You can't submit more than once\");\r\n        require(now <= openingTime, \"The box has already been opened\");\r\n\r\n        // record the submition\r\n        voters[msg.sender] = true;\r\n\r\n        // record the submited note\r\n        numberOfNotes++;\r\n        notes[numberOfNotes] = note;\r\n    }\r\n\r\n    function open() public {\r\n        require(now >= openingTime, \"The submition period is still in progress\");\r\n        require(!opened, \"The box has already been opened.\");\r\n\r\n        opened = true;\r\n        emit BoxOpened();\r\n    }\r\n}",
  "sourcePath": "C:/Users/Admin/Desktop/coding/Projects/Hackathons/EthWaterloo/box-of-notes/contracts/Box.sol",
  "compiler": {
    "name": "solc",
    "version": "0.5.12+commit.7709ece9.Emscripten.clang"
  },
  "schemaVersion": "3.0.18",
  "updatedAt": "2019-11-09T22:49:55.588Z",
  "networkType": "ethereum",
  "devdoc": {
    "methods": {}
  },
  "userdoc": {
    "methods": {}
  }
}