{
  "contractName": "Storage",
  "abi": [
    {
      "constant": false,
      "inputs": [
        {
          "internalType": "string",
          "name": "title",
          "type": "string"
        },
        {
          "internalType": "uint256",
          "name": "lifetime",
          "type": "uint256"
        }
      ],
      "name": "deployBox",
      "outputs": [],
      "payable": false,
      "stateMutability": "nonpayable",
      "type": "function"
    },
    {
      "constant": false,
      "inputs": [
        {
          "internalType": "string",
          "name": "note",
          "type": "string"
        },
        {
          "internalType": "address",
          "name": "boxAddress",
          "type": "address"
        }
      ],
      "name": "submitNote",
      "outputs": [],
      "payable": false,
      "stateMutability": "nonpayable",
      "type": "function"
    }
  ],
  "bytecode": "0x608060405234801561001057600080fd5b506113a3806100206000396000f3fe608060405234801561001057600080fd5b50600436106100365760003560e01c80636d9d6e161461003b5780636e03dbdc14610116575b600080fd5b6101146004803603604081101561005157600080fd5b810190808035906020019064010000000081111561006e57600080fd5b82018360208201111561008057600080fd5b803590602001918460018302840111640100000000831117156100a257600080fd5b91908080601f016020809104026020016040519081016040528093929190818152602001838380828437600081840152601f19601f820116905080830192505050505050509192919290803573ffffffffffffffffffffffffffffffffffffffff1690602001909291905050506101db565b005b6101d96004803603604081101561012c57600080fd5b810190808035906020019064010000000081111561014957600080fd5b82018360208201111561015b57600080fd5b8035906020019184600183028401116401000000008311171561017d57600080fd5b91908080601f016020809104026020016040519081016040528093929190818152602001838380828437600081840152601f19601f820116905080830192505050505050509192919290803590602001909291905050506104c6565b005b600360008273ffffffffffffffffffffffffffffffffffffffff1673ffffffffffffffffffffffffffffffffffffffff16815260200190815260200160002060009054906101000a900460ff1661029a576040517f08c379a00000000000000000000000000000000000000000000000000000000081526004018080602001828103825260158152602001807f54686520626f7820646f65736e2774206578697374000000000000000000000081525060200191505060405180910390fd5b6000600260008373ffffffffffffffffffffffffffffffffffffffff1673ffffffffffffffffffffffffffffffffffffffff16815260200190815260200160002060009054906101000a900473ffffffffffffffffffffffffffffffffffffffff1690508073ffffffffffffffffffffffffffffffffffffffff166366a30639846040518263ffffffff1660e01b81526004018080602001828103825283818151815260200191508051906020019080838360005b8381101561036a57808201518184015260208101905061034f565b50505050905090810190601f1680156103975780820380516001836020036101000a031916815260200191505b5092505050600060405180830381600087803b1580156103b657600080fd5b505af11580156103ca573d6000803e3d6000fd5b50505050600460003373ffffffffffffffffffffffffffffffffffffffff1673ffffffffffffffffffffffffffffffffffffffff1681526020019081526020016000206000815480929190600101919050555082600560003373ffffffffffffffffffffffffffffffffffffffff1673ffffffffffffffffffffffffffffffffffffffff1681526020019081526020016000206000600460003373ffffffffffffffffffffffffffffffffffffffff1673ffffffffffffffffffffffffffffffffffffffff16815260200190815260200160002054815260200190815260200160002090805190602001906104c092919061076f565b50505050565b6000803373ffffffffffffffffffffffffffffffffffffffff1673ffffffffffffffffffffffffffffffffffffffff1681526020019081526020016000206000815480929190600101919050555060008060003373ffffffffffffffffffffffffffffffffffffffff1673ffffffffffffffffffffffffffffffffffffffff1681526020019081526020016000205490506000818484604051610568906107ef565b8084815260200180602001838152602001828103825284818151815260200191508051906020019080838360005b838110156105b1578082015181840152602081019050610596565b50505050905090810190601f1680156105de5780820380516001836020036101000a031916815260200191505b50945050505050604051809103906000f080158015610601573d6000803e3d6000fd5b50905080600160003373ffffffffffffffffffffffffffffffffffffffff1673ffffffffffffffffffffffffffffffffffffffff168152602001908152602001600020600084815260200190815260200160002060006101000a81548173ffffffffffffffffffffffffffffffffffffffff021916908373ffffffffffffffffffffffffffffffffffffffff16021790555080600260008373ffffffffffffffffffffffffffffffffffffffff1673ffffffffffffffffffffffffffffffffffffffff16815260200190815260200160002060006101000a81548173ffffffffffffffffffffffffffffffffffffffff021916908373ffffffffffffffffffffffffffffffffffffffff1602179055506001600360008373ffffffffffffffffffffffffffffffffffffffff1673ffffffffffffffffffffffffffffffffffffffff16815260200190815260200160002060006101000a81548160ff02191690831515021790555050505050565b828054600181600116156101000203166002900490600052602060002090601f016020900481019282601f106107b057805160ff19168380011785556107de565b828001600101855582156107de579182015b828111156107dd5782518255916020019190600101906107c2565b5b5090506107eb91906107fc565b5090565b610b4d8061082283390190565b61081e91905b8082111561081a576000816000905550600101610802565b5090565b9056fe608060405234801561001057600080fd5b50604051610b4d380380610b4d8339818101604052606081101561003357600080fd5b81019080805190602001909291908051604051939291908464010000000082111561005d57600080fd5b8382019150602082018581111561007357600080fd5b825186600182028301116401000000008211171561009057600080fd5b8083526020830192505050908051906020019080838360005b838110156100c45780820151818401526020810190506100a9565b50505050905090810190601f1680156100f15780820380516001836020036101000a031916815260200191505b5060405260200180519060200190929190505050826000819055508160019080519060200190610122929190610175565b5080420160028190555033600460006101000a81548173ffffffffffffffffffffffffffffffffffffffff021916908373ffffffffffffffffffffffffffffffffffffffff16021790555050505061021a565b828054600181600116156101000203166002900490600052602060002090601f016020900481019282601f106101b657805160ff19168380011785556101e4565b828001600101855582156101e4579182015b828111156101e35782518255916020019190600101906101c8565b5b5090506101f191906101f5565b5090565b61021791905b808211156102135760008160009055506001016101fb565b5090565b90565b610924806102296000396000f3fe608060405234801561001057600080fd5b50600436106100885760003560e01c8063a3ec138d1161005b578063a3ec138d14610290578063a965a941146102ec578063af640d0f14610393578063b7a8807c146103b157610088565b80634a79d50c1461008d57806361c3a7e61461011057806366a30639146101b757806374653bcb14610272575b600080fd5b6100956103cf565b6040518080602001828103825283818151815260200191508051906020019080838360005b838110156100d55780820151818401526020810190506100ba565b50505050905090810190601f1680156101025780820380516001836020036101000a031916815260200191505b509250505060405180910390f35b61013c6004803603602081101561012657600080fd5b810190808035906020019092919050505061046d565b6040518080602001828103825283818151815260200191508051906020019080838360005b8381101561017c578082015181840152602081019050610161565b50505050905090810190601f1680156101a95780820380516001836020036101000a031916815260200191505b509250505060405180910390f35b610270600480360360208110156101cd57600080fd5b81019080803590602001906401000000008111156101ea57600080fd5b8201836020820111156101fc57600080fd5b8035906020019184600183028401116401000000008311171561021e57600080fd5b91908080601f016020809104026020016040519081016040528093929190818152602001838380828437600081840152601f19601f82011690508083019250505050505050919291929050505061051d565b005b61027a6106ec565b6040518082815260200191505060405180910390f35b6102d2600480360360208110156102a657600080fd5b81019080803573ffffffffffffffffffffffffffffffffffffffff1690602001909291905050506106f2565b604051808215151515815260200191505060405180910390f35b6103186004803603602081101561030257600080fd5b8101908080359060200190929190505050610712565b6040518080602001828103825283818151815260200191508051906020019080838360005b8381101561035857808201518184015260208101905061033d565b50505050905090810190601f1680156103855780820380516001836020036101000a031916815260200191505b509250505060405180910390f35b61039b61083e565b6040518082815260200191505060405180910390f35b6103b9610844565b6040518082815260200191505060405180910390f35b60018054600181600116156101000203166002900480601f0160208091040260200160405190810160405280929190818152602001828054600181600116156101000203166002900480156104655780601f1061043a57610100808354040283529160200191610465565b820191906000526020600020905b81548152906001019060200180831161044857829003601f168201915b505050505081565b60066020528060005260406000206000915090508054600181600116156101000203166002900480601f0160208091040260200160405190810160405280929190818152602001828054600181600116156101000203166002900480156105155780601f106104ea57610100808354040283529160200191610515565b820191906000526020600020905b8154815290600101906020018083116104f857829003601f168201915b505050505081565b600560003373ffffffffffffffffffffffffffffffffffffffff1673ffffffffffffffffffffffffffffffffffffffff16815260200190815260200160002060009054906101000a900460ff16156105dd576040517f08c379a000000000000000000000000000000000000000000000000000000000815260040180806020018281038252601f8152602001807f596f752063616e2774207375626d6974206d6f7265207468616e206f6e63650081525060200191505060405180910390fd5b600254421115610655576040517f08c379a000000000000000000000000000000000000000000000000000000000815260040180806020018281038252601f8152602001807f54686520626f782068617320616c7265616479206265656e206f70656e65640081525060200191505060405180910390fd5b6001600560003373ffffffffffffffffffffffffffffffffffffffff1673ffffffffffffffffffffffffffffffffffffffff16815260200190815260200160002060006101000a81548160ff0219169083151502179055506003600081548092919060010191905055508060066000600354815260200190815260200160002090805190602001906106e892919061084a565b5050565b60035481565b60056020528060005260406000206000915054906101000a900460ff1681565b6060600254421161078b576040517f08c379a00000000000000000000000000000000000000000000000000000000081526004018080602001828103825260178152602001807f54686520626f78206973207374696c6c20636c6f73656400000000000000000081525060200191505060405180910390fd5b600660008381526020019081526020016000208054600181600116156101000203166002900480601f0160208091040260200160405190810160405280929190818152602001828054600181600116156101000203166002900480156108325780601f1061080757610100808354040283529160200191610832565b820191906000526020600020905b81548152906001019060200180831161081557829003601f168201915b50505050509050919050565b60005481565b60025481565b828054600181600116156101000203166002900490600052602060002090601f016020900481019282601f1061088b57805160ff19168380011785556108b9565b828001600101855582156108b9579182015b828111156108b857825182559160200191906001019061089d565b5b5090506108c691906108ca565b5090565b6108ec91905b808211156108e85760008160009055506001016108d0565b5090565b9056fea265627a7a7231582023969a88534d5299ef3c58ff43176ef180a07b998e31dc2a81a0e3ecdf41d08e64736f6c634300050c0032a265627a7a72315820516868f71450c7e790f4f8426527c06d4e63dba536ed3df2e9a668b4d680500a64736f6c634300050c0032",
  "source": "pragma solidity ^0.5.11;\r\n\r\ncontract Box {\r\n    uint public id;\r\n    string public title;\r\n    uint public openingTime;\r\n    uint public numberOfNotes;\r\n    address creator;\r\n\r\n    mapping(address => bool) public voters;\r\n    mapping(uint => string) public notes;\r\n\r\n    constructor (uint _id, string memory _title, uint _lifetime) public {\r\n        id = _id;\r\n        title = _title;\r\n        openingTime = now + _lifetime;\r\n        creator = msg.sender;\r\n    }\r\n\r\n    function submitNote(string memory note) public {\r\n        require(!voters[msg.sender], \"You can't submit more than once\");\r\n        require(now <= openingTime, \"The box has already been opened\");\r\n\r\n        // record the submition\r\n        voters[msg.sender] = true;\r\n\r\n        // record the submited note\r\n        numberOfNotes++;\r\n        notes[numberOfNotes] = note;\r\n    }\r\n\r\n    function getNote(uint noteNumber) public view returns (string memory) {\r\n        require(now > openingTime, \"The box is still closed\");\r\n        return notes[noteNumber];\r\n    }\r\n}\r\n\r\ncontract Storage {\r\n    mapping(address => uint) voterBoxCount;\r\n    mapping(address => mapping(uint => Box)) voterBoxes;\r\n    mapping(address => Box) boxes;\r\n    mapping(address => bool) boxExists;\r\n    mapping(address => uint) voterNoteCount;\r\n    mapping(address => mapping(uint => string)) voterNotes;\r\n\r\n    function deployBox(string memory title, uint lifetime) public {\r\n        voterBoxCount[msg.sender]++;\r\n        uint boxCount = voterBoxCount[msg.sender];\r\n        Box box = new Box(boxCount, title, lifetime);\r\n        voterBoxes[msg.sender][boxCount] = box;\r\n        boxes[address(box)] = box;\r\n        boxExists[address(box)] = true;\r\n    }\r\n\r\n    function submitNote(string memory note, address boxAddress) public {\r\n        require(boxExists[boxAddress], \"The box doesn't exist\");\r\n        Box box = boxes[boxAddress];\r\n        box.submitNote(note);\r\n\r\n        voterNoteCount[msg.sender]++;\r\n        voterNotes[msg.sender][voterNoteCount[msg.sender]] = note;\r\n    }\r\n}",
  "sourcePath": "C:/Users/Admin/Desktop/coding/Projects/Hackathons/EthWaterloo/box-of-notes/contracts/Box.sol",
  "compiler": {
    "name": "solc",
    "version": "0.5.12+commit.7709ece9.Emscripten.clang"
  },
  "schemaVersion": "3.0.18",
  "updatedAt": "2019-11-10T12:46:18.783Z",
  "networkType": "ethereum",
  "devdoc": {
    "methods": {}
  },
  "userdoc": {
    "methods": {}
  }
}